{
  "_format": "hh-sol-artifact-1",
  "contractName": "VotingElection",
  "sourceName": "contracts/VotingElection.sol",
  "abi": [
    {
      "inputs": [],
      "stateMutability": "nonpayable",
      "type": "constructor"
    },
    {
      "inputs": [],
      "name": "AlreadyRevealed",
      "type": "error"
    },
    {
      "inputs": [],
      "name": "AlreadyVoted",
      "type": "error"
    },
    {
      "inputs": [],
      "name": "InvalidCandidate",
      "type": "error"
    },
    {
      "inputs": [],
      "name": "InvalidCommitment",
      "type": "error"
    },
    {
      "inputs": [],
      "name": "InvalidElection",
      "type": "error"
    },
    {
      "inputs": [],
      "name": "InvalidState",
      "type": "error"
    },
    {
      "inputs": [],
      "name": "NotOracle",
      "type": "error"
    },
    {
      "inputs": [],
      "name": "NotOrganizer",
      "type": "error"
    },
    {
      "inputs": [],
      "name": "ResultsNotAvailable",
      "type": "error"
    },
    {
      "inputs": [],
      "name": "VotingNotOpen",
      "type": "error"
    },
    {
      "anonymous": false,
      "inputs": [
        {
          "indexed": true,
          "internalType": "uint256",
          "name": "electionId",
          "type": "uint256"
        },
        {
          "indexed": true,
          "internalType": "uint256",
          "name": "candidateId",
          "type": "uint256"
        },
        {
          "indexed": false,
          "internalType": "string",
          "name": "name",
          "type": "string"
        }
      ],
      "name": "CandidateAdded",
      "type": "event"
    },
    {
      "anonymous": false,
      "inputs": [
        {
          "indexed": true,
          "internalType": "uint256",
          "name": "electionId",
          "type": "uint256"
        },
        {
          "indexed": false,
          "internalType": "string",
          "name": "title",
          "type": "string"
        },
        {
          "indexed": false,
          "internalType": "uint64",
          "name": "startTime",
          "type": "uint64"
        },
        {
          "indexed": false,
          "internalType": "uint64",
          "name": "endTime",
          "type": "uint64"
        }
      ],
      "name": "ElectionCreated",
      "type": "event"
    },
    {
      "anonymous": false,
      "inputs": [
        {
          "indexed": true,
          "internalType": "uint256",
          "name": "electionId",
          "type": "uint256"
        }
      ],
      "name": "ResultsPublished",
      "type": "event"
    },
    {
      "anonymous": false,
      "inputs": [
        {
          "indexed": true,
          "internalType": "uint256",
          "name": "electionId",
          "type": "uint256"
        },
        {
          "indexed": true,
          "internalType": "bytes32",
          "name": "voterHash",
          "type": "bytes32"
        },
        {
          "indexed": false,
          "internalType": "bytes32",
          "name": "commitment",
          "type": "bytes32"
        },
        {
          "indexed": false,
          "internalType": "uint256",
          "name": "timestamp",
          "type": "uint256"
        }
      ],
      "name": "VoteCommitted",
      "type": "event"
    },
    {
      "anonymous": false,
      "inputs": [
        {
          "indexed": true,
          "internalType": "uint256",
          "name": "electionId",
          "type": "uint256"
        },
        {
          "indexed": true,
          "internalType": "bytes32",
          "name": "voterHash",
          "type": "bytes32"
        },
        {
          "indexed": false,
          "internalType": "uint256",
          "name": "candidateId",
          "type": "uint256"
        }
      ],
      "name": "VoteRevealed",
      "type": "event"
    },
    {
      "anonymous": false,
      "inputs": [
        {
          "indexed": true,
          "internalType": "uint256",
          "name": "electionId",
          "type": "uint256"
        }
      ],
      "name": "VotingClosed",
      "type": "event"
    },
    {
      "anonymous": false,
      "inputs": [
        {
          "indexed": true,
          "internalType": "uint256",
          "name": "electionId",
          "type": "uint256"
        }
      ],
      "name": "VotingOpened",
      "type": "event"
    },
    {
      "inputs": [
        {
          "internalType": "uint256",
          "name": "electionId",
          "type": "uint256"
        },
        {
          "internalType": "string",
          "name": "name",
          "type": "string"
        }
      ],
      "name": "addCandidate",
      "outputs": [],
      "stateMutability": "nonpayable",
      "type": "function"
    },
    {
      "inputs": [
        {
          "internalType": "uint256",
          "name": "",
          "type": "uint256"
        },
        {
          "internalType": "uint256",
          "name": "",
          "type": "uint256"
        }
      ],
      "name": "candidates",
      "outputs": [
        {
          "internalType": "uint256",
          "name": "id",
          "type": "uint256"
        },
        {
          "internalType": "string",
          "name": "name",
          "type": "string"
        }
      ],
      "stateMutability": "view",
      "type": "function"
    },
    {
      "inputs": [
        {
          "internalType": "uint256",
          "name": "electionId",
          "type": "uint256"
        },
        {
          "internalType": "bytes32",
          "name": "voterHash",
          "type": "bytes32"
        },
        {
          "internalType": "bytes32",
          "name": "commitment",
          "type": "bytes32"
        }
      ],
      "name": "castVote",
      "outputs": [],
      "stateMutability": "nonpayable",
      "type": "function"
    },
    {
      "inputs": [
        {
          "internalType": "uint256",
          "name": "electionId",
          "type": "uint256"
        }
      ],
      "name": "closeVoting",
      "outputs": [],
      "stateMutability": "nonpayable",
      "type": "function"
    },
    {
      "inputs": [
        {
          "internalType": "string",
          "name": "title",
          "type": "string"
        },
        {
          "internalType": "uint64",
          "name": "startTime",
          "type": "uint64"
        },
        {
          "internalType": "uint64",
          "name": "endTime",
          "type": "uint64"
        }
      ],
      "name": "createElection",
      "outputs": [
        {
          "internalType": "uint256",
          "name": "electionId",
          "type": "uint256"
        }
      ],
      "stateMutability": "nonpayable",
      "type": "function"
    },
    {
      "inputs": [],
      "name": "electionCount",
      "outputs": [
        {
          "internalType": "uint256",
          "name": "",
          "type": "uint256"
        }
      ],
      "stateMutability": "view",
      "type": "function"
    },
    {
      "inputs": [
        {
          "internalType": "uint256",
          "name": "",
          "type": "uint256"
        }
      ],
      "name": "elections",
      "outputs": [
        {
          "internalType": "uint256",
          "name": "id",
          "type": "uint256"
        },
        {
          "internalType": "string",
          "name": "title",
          "type": "string"
        },
        {
          "internalType": "enum VotingElection.ElectionState",
          "name": "state",
          "type": "uint8"
        },
        {
          "internalType": "uint64",
          "name": "startTime",
          "type": "uint64"
        },
        {
          "internalType": "uint64",
          "name": "endTime",
          "type": "uint64"
        },
        {
          "internalType": "uint256",
          "name": "candidateCount",
          "type": "uint256"
        },
        {
          "internalType": "uint256",
          "name": "votesCommitted",
          "type": "uint256"
        },
        {
          "internalType": "uint256",
          "name": "votesRevealed",
          "type": "uint256"
        }
      ],
      "stateMutability": "view",
      "type": "function"
    },
    {
      "inputs": [
        {
          "internalType": "uint256",
          "name": "electionId",
          "type": "uint256"
        },
        {
          "internalType": "bytes32",
          "name": "voterHash",
          "type": "bytes32"
        }
      ],
      "name": "getHasRevealed",
      "outputs": [
        {
          "internalType": "bool",
          "name": "",
          "type": "bool"
        }
      ],
      "stateMutability": "view",
      "type": "function"
    },
    {
      "inputs": [
        {
          "internalType": "uint256",
          "name": "electionId",
          "type": "uint256"
        },
        {
          "internalType": "bytes32",
          "name": "voterHash",
          "type": "bytes32"
        }
      ],
      "name": "getHasVoted",
      "outputs": [
        {
          "internalType": "bool",
          "name": "",
          "type": "bool"
        }
      ],
      "stateMutability": "view",
      "type": "function"
    },
    {
      "inputs": [
        {
          "internalType": "uint256",
          "name": "electionId",
          "type": "uint256"
        }
      ],
      "name": "getParticipationStats",
      "outputs": [
        {
          "internalType": "uint256",
          "name": "committed",
          "type": "uint256"
        },
        {
          "internalType": "uint256",
          "name": "revealed",
          "type": "uint256"
        }
      ],
      "stateMutability": "view",
      "type": "function"
    },
    {
      "inputs": [
        {
          "internalType": "uint256",
          "name": "electionId",
          "type": "uint256"
        }
      ],
      "name": "getResults",
      "outputs": [
        {
          "internalType": "uint256[]",
          "name": "candidateIds",
          "type": "uint256[]"
        },
        {
          "internalType": "uint256[]",
          "name": "counts",
          "type": "uint256[]"
        },
        {
          "internalType": "string[]",
          "name": "names",
          "type": "string[]"
        }
      ],
      "stateMutability": "view",
      "type": "function"
    },
    {
      "inputs": [
        {
          "internalType": "uint256",
          "name": "electionId",
          "type": "uint256"
        },
        {
          "internalType": "bytes32",
          "name": "voterHash",
          "type": "bytes32"
        }
      ],
      "name": "getVoteCommitment",
      "outputs": [
        {
          "internalType": "bytes32",
          "name": "",
          "type": "bytes32"
        }
      ],
      "stateMutability": "view",
      "type": "function"
    },
    {
      "inputs": [
        {
          "internalType": "uint256",
          "name": "",
          "type": "uint256"
        },
        {
          "internalType": "bytes32",
          "name": "",
          "type": "bytes32"
        }
      ],
      "name": "hasRevealed",
      "outputs": [
        {
          "internalType": "bool",
          "name": "",
          "type": "bool"
        }
      ],
      "stateMutability": "view",
      "type": "function"
    },
    {
      "inputs": [
        {
          "internalType": "uint256",
          "name": "",
          "type": "uint256"
        },
        {
          "internalType": "bytes32",
          "name": "",
          "type": "bytes32"
        }
      ],
      "name": "hasVoted",
      "outputs": [
        {
          "internalType": "bool",
          "name": "",
          "type": "bool"
        }
      ],
      "stateMutability": "view",
      "type": "function"
    },
    {
      "inputs": [
        {
          "internalType": "uint256",
          "name": "electionId",
          "type": "uint256"
        }
      ],
      "name": "openVoting",
      "outputs": [],
      "stateMutability": "nonpayable",
      "type": "function"
    },
    {
      "inputs": [],
      "name": "oracle",
      "outputs": [
        {
          "internalType": "address",
          "name": "",
          "type": "address"
        }
      ],
      "stateMutability": "view",
      "type": "function"
    },
    {
      "inputs": [],
      "name": "organizer",
      "outputs": [
        {
          "internalType": "address",
          "name": "",
          "type": "address"
        }
      ],
      "stateMutability": "view",
      "type": "function"
    },
    {
      "inputs": [
        {
          "internalType": "uint256",
          "name": "electionId",
          "type": "uint256"
        }
      ],
      "name": "publishResults",
      "outputs": [],
      "stateMutability": "nonpayable",
      "type": "function"
    },
    {
      "inputs": [
        {
          "internalType": "uint256",
          "name": "electionId",
          "type": "uint256"
        },
        {
          "internalType": "bytes32",
          "name": "voterHash",
          "type": "bytes32"
        },
        {
          "internalType": "uint256",
          "name": "candidateId",
          "type": "uint256"
        },
        {
          "internalType": "bytes32",
          "name": "nonce",
          "type": "bytes32"
        }
      ],
      "name": "revealVote",
      "outputs": [],
      "stateMutability": "nonpayable",
      "type": "function"
    },
    {
      "inputs": [
        {
          "internalType": "address",
          "name": "newOracle",
          "type": "address"
        }
      ],
      "name": "setOracle",
      "outputs": [],
      "stateMutability": "nonpayable",
      "type": "function"
    },
    {
      "inputs": [
        {
          "internalType": "uint256",
          "name": "",
          "type": "uint256"
        },
        {
          "internalType": "bytes32",
          "name": "",
          "type": "bytes32"
        }
      ],
      "name": "voteCommitment",
      "outputs": [
        {
          "internalType": "bytes32",
          "name": "",
          "type": "bytes32"
        }
      ],
      "stateMutability": "view",
      "type": "function"
    },
    {
      "inputs": [
        {
          "internalType": "uint256",
          "name": "",
          "type": "uint256"
        },
        {
          "internalType": "uint256",
          "name": "",
          "type": "uint256"
        }
      ],
      "name": "voteCounts",
      "outputs": [
        {
          "internalType": "uint256",
          "name": "",
          "type": "uint256"
        }
      ],
      "stateMutability": "view",
      "type": "function"
    }
  ],
  "bytecode": "0x608060405234801561001057600080fd5b50336000806101000a81548173ffffffffffffffffffffffffffffffffffffffff021916908373ffffffffffffffffffffffffffffffffffffffff16021790555033600160006101000a81548173ffffffffffffffffffffffffffffffffffffffff021916908373ffffffffffffffffffffffffffffffffffffffff160217905550612963806100a16000396000f3fe608060405234801561001057600080fd5b50600436106101425760003560e01c806374417bf4116100b85780638a0f98f41161007c5780638a0f98f4146103ca578063997d2830146103fa578063bfad9cc014610418578063cfb0ad2214610434578063d2111a7214610464578063d2daa1c21461048057610142565b806374417bf4146102fd5780637adbf9731461032d5780637dc0d1d0146103495780637de142421461036757806381a60c0d1461039857610142565b806349f197801161010a57806349f19780146102245780635e599e58146102405780635e6fef011461025c5780635f2ba6b21461029357806361203265146102af57806371afec14146102cd57610142565b80631750a3d0146101475780631b5c8d9814610163578063235b675b146101935780632e49b0c7146101c3578063497e183d146101f4575b600080fd5b610161600480360381019061015c9190611bbf565b6104b0565b005b61017d60048036038101906101789190611c55565b6106f6565b60405161018a9190611cb0565b60405180910390f35b6101ad60048036038101906101a89190611c55565b610732565b6040516101ba9190611cb0565b60405180910390f35b6101dd60048036038101906101d89190611ccb565b61076e565b6040516101eb929190611d07565b60405180910390f35b61020e60048036038101906102099190611c55565b610792565b60405161021b9190611d3f565b60405180910390f35b61023e60048036038101906102399190611d5a565b6107b7565b005b61025a60048036038101906102559190611dc1565b610b17565b005b61027660048036038101906102719190611ccb565b610d82565b60405161028a989796959493929190611f3e565b60405180910390f35b6102ad60048036038101906102a89190611ccb565b610e87565b005b6102b7610fe6565b6040516102c49190612004565b60405180910390f35b6102e760048036038101906102e29190611c55565b61100a565b6040516102f49190611d3f565b60405180910390f35b61031760048036038101906103129190611c55565b611039565b6040516103249190611cb0565b60405180910390f35b6103476004803603810190610342919061204b565b611068565b005b610351611131565b60405161035e9190612004565b60405180910390f35b610381600480360381019061037c9190612078565b611157565b60405161038f9291906120b8565b60405180910390f35b6103b260048036038101906103ad9190611ccb565b611210565b6040516103c1939291906122b2565b60405180910390f35b6103e460048036038101906103df919061232a565b611500565b6040516103f1919061239e565b60405180910390f35b61040261176f565b60405161040f919061239e565b60405180910390f35b610432600480360381019061042d9190611ccb565b611775565b005b61044e60048036038101906104499190611c55565b6118d4565b60405161045b9190611cb0565b60405180910390f35b61047e60048036038101906104799190611ccb565b611903565b005b61049a60048036038101906104959190612078565b611a62565b6040516104a7919061239e565b60405180910390f35b60008054906101000a900473ffffffffffffffffffffffffffffffffffffffff1673ffffffffffffffffffffffffffffffffffffffff163373ffffffffffffffffffffffffffffffffffffffff1614610535576040517f8f40e9c400000000000000000000000000000000000000000000000000000000815260040160405180910390fd5b6000600360008581526020019081526020016000209050600081600001540361058a576040517fcd9f14e100000000000000000000000000000000000000000000000000000000815260040160405180910390fd5b6000600381111561059e5761059d611ea4565b5b8160020160009054906101000a900460ff1660038111156105c2576105c1611ea4565b5b146105f9576040517fbaf3f0f700000000000000000000000000000000000000000000000000000000815260040160405180910390fd5b6000816003016000815461060c906123e8565b9190508190559050604051806040016040528082815260200185858080601f016020809104026020016040519081016040528093929190818152602001838380828437600081840152601f19601f820116905080830192505050505050508152506004600087815260200190815260200160002060008381526020019081526020016000206000820151816000015560208201518160010190816106b0919061266b565b5090505080857fed8911b3df733b7d5f75724158e54478ea12e30f49c9d31b5261879f5b76586f86866040516106e7929190612779565b60405180910390a35050505050565b600060056000848152602001908152602001600020600083815260200190815260200160002060009054906101000a900460ff16905092915050565b600060066000848152602001908152602001600020600083815260200190815260200160002060009054906101000a900460ff16905092915050565b600080600061077c84611a87565b9050806004015481600501549250925050915091565b6007602052816000526040600020602052806000526040600020600091509150505481565b600160009054906101000a900473ffffffffffffffffffffffffffffffffffffffff1673ffffffffffffffffffffffffffffffffffffffff163373ffffffffffffffffffffffffffffffffffffffff161461083e576040517f1bc2178f00000000000000000000000000000000000000000000000000000000815260040160405180910390fd5b600061084985611a87565b90506002600381111561085f5761085e611ea4565b5b8160020160009054906101000a900460ff16600381111561088357610882611ea4565b5b146108ba576040517fbaf3f0f700000000000000000000000000000000000000000000000000000000815260040160405180910390fd5b60056000868152602001908152602001600020600085815260200190815260200160002060009054906101000a900460ff16610922576040517fc06789fa00000000000000000000000000000000000000000000000000000000815260040160405180910390fd5b60066000868152602001908152602001600020600085815260200190815260200160002060009054906101000a900460ff161561098b576040517fa89ac15100000000000000000000000000000000000000000000000000000000815260040160405180910390fd5b600083148061099d5750806003015483115b156109d4576040517fe66ea08f00000000000000000000000000000000000000000000000000000000815260040160405180910390fd5b60006109e285858589611ae1565b9050806007600088815260200190815260200160002060008781526020019081526020016000205414610a41576040517fc06789fa00000000000000000000000000000000000000000000000000000000815260040160405180910390fd5b600160066000888152602001908152602001600020600087815260200190815260200160002060006101000a81548160ff02191690831515021790555060016008600088815260200190815260200160002060008681526020019081526020016000206000828254610ab3919061279d565b925050819055506001826005016000828254610acf919061279d565b9250508190555084867f28cc31696aa888aa6307052c35b2af96e0ecff781b9f6cff96b93d86be35210a86604051610b07919061239e565b60405180910390a3505050505050565b600160009054906101000a900473ffffffffffffffffffffffffffffffffffffffff1673ffffffffffffffffffffffffffffffffffffffff163373ffffffffffffffffffffffffffffffffffffffff1614610b9e576040517f1bc2178f00000000000000000000000000000000000000000000000000000000815260040160405180910390fd5b6000610ba984611a87565b905060016003811115610bbf57610bbe611ea4565b5b8160020160009054906101000a900460ff166003811115610be357610be2611ea4565b5b14610c1a576040517f3d0e4af700000000000000000000000000000000000000000000000000000000815260040160405180910390fd5b6000801b8203610c56576040517fc06789fa00000000000000000000000000000000000000000000000000000000815260040160405180910390fd5b60056000858152602001908152602001600020600084815260200190815260200160002060009054906101000a900460ff1615610cbf576040517f7c9a1cf900000000000000000000000000000000000000000000000000000000815260040160405180910390fd5b600160056000868152602001908152602001600020600085815260200190815260200160002060006101000a81548160ff02191690831515021790555081600760008681526020019081526020016000206000858152602001908152602001600020819055506001816004016000828254610d3a919061279d565b9250508190555082847f73ec4b20d44157016f091abd10f8c2348cce215bba5e5715ef68e4e937eb39b48442604051610d749291906127d1565b60405180910390a350505050565b6003602052806000526040600020600091509050806000015490806001018054610dab9061248e565b80601f0160208091040260200160405190810160405280929190818152602001828054610dd79061248e565b8015610e245780601f10610df957610100808354040283529160200191610e24565b820191906000526020600020905b815481529060010190602001808311610e0757829003601f168201915b5050505050908060020160009054906101000a900460ff16908060020160019054906101000a900467ffffffffffffffff16908060020160099054906101000a900467ffffffffffffffff16908060030154908060040154908060050154905088565b60008054906101000a900473ffffffffffffffffffffffffffffffffffffffff1673ffffffffffffffffffffffffffffffffffffffff163373ffffffffffffffffffffffffffffffffffffffff1614610f0c576040517f8f40e9c400000000000000000000000000000000000000000000000000000000815260040160405180910390fd5b6000610f1782611a87565b905060006003811115610f2d57610f2c611ea4565b5b8160020160009054906101000a900460ff166003811115610f5157610f50611ea4565b5b14610f88576040517fbaf3f0f700000000000000000000000000000000000000000000000000000000815260040160405180910390fd5b60018160020160006101000a81548160ff02191690836003811115610fb057610faf611ea4565b5b0217905550817fe0a358d4a766346f1ece85d22e2197435d610d9638874a0fd6746e58a1b1f58a60405160405180910390a25050565b60008054906101000a900473ffffffffffffffffffffffffffffffffffffffff1681565b600060076000848152602001908152602001600020600083815260200190815260200160002054905092915050565b60056020528160005260406000206020528060005260406000206000915091509054906101000a900460ff1681565b60008054906101000a900473ffffffffffffffffffffffffffffffffffffffff1673ffffffffffffffffffffffffffffffffffffffff163373ffffffffffffffffffffffffffffffffffffffff16146110ed576040517f8f40e9c400000000000000000000000000000000000000000000000000000000815260040160405180910390fd5b80600160006101000a81548173ffffffffffffffffffffffffffffffffffffffff021916908373ffffffffffffffffffffffffffffffffffffffff16021790555050565b600160009054906101000a900473ffffffffffffffffffffffffffffffffffffffff1681565b60046020528160005260406000206020528060005260406000206000915091505080600001549080600101805461118d9061248e565b80601f01602080910402602001604051908101604052809291908181526020018280546111b99061248e565b80156112065780601f106111db57610100808354040283529160200191611206565b820191906000526020600020905b8154815290600101906020018083116111e957829003601f168201915b5050505050905082565b6060806060600061122085611a87565b905060038081111561123557611234611ea4565b5b8160020160009054906101000a900460ff16600381111561125957611258611ea4565b5b14611290576040517f575fa8f200000000000000000000000000000000000000000000000000000000815260040160405180910390fd5b6000816003015490508067ffffffffffffffff8111156112b3576112b2612430565b5b6040519080825280602002602001820160405280156112e15781602001602082028036833780820191505090505b5094508067ffffffffffffffff8111156112fe576112fd612430565b5b60405190808252806020026020018201604052801561132c5781602001602082028036833780820191505090505b5093508067ffffffffffffffff81111561134957611348612430565b5b60405190808252806020026020018201604052801561137c57816020015b60608152602001906001900390816113675790505b5092506000600190505b8181116114f657808660018361139c91906127fa565b815181106113ad576113ac61282e565b5b60200260200101818152505060086000888152602001908152602001600020600082815260200190815260200160002054856001836113ec91906127fa565b815181106113fd576113fc61282e565b5b602002602001018181525050600460008881526020019081526020016000206000828152602001908152602001600020600101805461143b9061248e565b80601f01602080910402602001604051908101604052809291908181526020018280546114679061248e565b80156114b45780601f10611489576101008083540402835291602001916114b4565b820191906000526020600020905b81548152906001019060200180831161149757829003601f168201915b5050505050846001836114c791906127fa565b815181106114d8576114d761282e565b5b602002602001018190525080806114ee906123e8565b915050611386565b5050509193909250565b60008060009054906101000a900473ffffffffffffffffffffffffffffffffffffffff1673ffffffffffffffffffffffffffffffffffffffff163373ffffffffffffffffffffffffffffffffffffffff1614611588576040517f8f40e9c400000000000000000000000000000000000000000000000000000000815260040160405180910390fd5b600260008154611597906123e8565b919050819055905060405180610100016040528082815260200186868080601f016020809104026020016040519081016040528093929190818152602001838380828437600081840152601f19601f8201169050808301925050505050505081526020016000600381111561160f5761160e611ea4565b5b81526020018467ffffffffffffffff1681526020018367ffffffffffffffff1681526020016000815260200160008152602001600081525060036000838152602001908152602001600020600082015181600001556020820151816001019081611679919061266b565b5060408201518160020160006101000a81548160ff021916908360038111156116a5576116a4611ea4565b5b021790555060608201518160020160016101000a81548167ffffffffffffffff021916908367ffffffffffffffff16021790555060808201518160020160096101000a81548167ffffffffffffffff021916908367ffffffffffffffff16021790555060a0820151816003015560c0820151816004015560e08201518160050155905050807f5b8bcf1b3be7b81952c41f7cf3138f4dfc2994ad32715ecfef2add031f7ac53a8686868660405161175f949392919061285d565b60405180910390a2949350505050565b60025481565b60008054906101000a900473ffffffffffffffffffffffffffffffffffffffff1673ffffffffffffffffffffffffffffffffffffffff163373ffffffffffffffffffffffffffffffffffffffff16146117fa576040517f8f40e9c400000000000000000000000000000000000000000000000000000000815260040160405180910390fd5b600061180582611a87565b90506002600381111561181b5761181a611ea4565b5b8160020160009054906101000a900460ff16600381111561183f5761183e611ea4565b5b14611876576040517fbaf3f0f700000000000000000000000000000000000000000000000000000000815260040160405180910390fd5b60038160020160006101000a81548160ff0219169083600381111561189e5761189d611ea4565b5b0217905550817fee088bcc4c9bbd048c9c087916ec26aae94e63151610af8167078ef170e5ae6060405160405180910390a25050565b60066020528160005260406000206020528060005260406000206000915091509054906101000a900460ff1681565b60008054906101000a900473ffffffffffffffffffffffffffffffffffffffff1673ffffffffffffffffffffffffffffffffffffffff163373ffffffffffffffffffffffffffffffffffffffff1614611988576040517f8f40e9c400000000000000000000000000000000000000000000000000000000815260040160405180910390fd5b600061199382611a87565b9050600160038111156119a9576119a8611ea4565b5b8160020160009054906101000a900460ff1660038111156119cd576119cc611ea4565b5b14611a04576040517fbaf3f0f700000000000000000000000000000000000000000000000000000000815260040160405180910390fd5b60028160020160006101000a81548160ff02191690836003811115611a2c57611a2b611ea4565b5b0217905550817f8e9b46a70b3967bc9ea56ca61732c363a191fac88ae3ba011f4e030711c9011760405160405180910390a25050565b6008602052816000526040600020602052806000526040600020600091509150505481565b60006003600083815260200190815260200160002090506000816000015403611adc576040517fcd9f14e100000000000000000000000000000000000000000000000000000000815260040160405180910390fd5b919050565b600084848484604051602001611afa94939291906128df565b604051602081830303815290604052805190602001209050949350505050565b600080fd5b600080fd5b6000819050919050565b611b3781611b24565b8114611b4257600080fd5b50565b600081359050611b5481611b2e565b92915050565b600080fd5b600080fd5b600080fd5b60008083601f840112611b7f57611b7e611b5a565b5b8235905067ffffffffffffffff811115611b9c57611b9b611b5f565b5b602083019150836001820283011115611bb857611bb7611b64565b5b9250929050565b600080600060408486031215611bd857611bd7611b1a565b5b6000611be686828701611b45565b935050602084013567ffffffffffffffff811115611c0757611c06611b1f565b5b611c1386828701611b69565b92509250509250925092565b6000819050919050565b611c3281611c1f565b8114611c3d57600080fd5b50565b600081359050611c4f81611c29565b92915050565b60008060408385031215611c6c57611c6b611b1a565b5b6000611c7a85828601611b45565b9250506020611c8b85828601611c40565b9150509250929050565b60008115159050919050565b611caa81611c95565b82525050565b6000602082019050611cc56000830184611ca1565b92915050565b600060208284031215611ce157611ce0611b1a565b5b6000611cef84828501611b45565b91505092915050565b611d0181611b24565b82525050565b6000604082019050611d1c6000830185611cf8565b611d296020830184611cf8565b9392505050565b611d3981611c1f565b82525050565b6000602082019050611d546000830184611d30565b92915050565b60008060008060808587031215611d7457611d73611b1a565b5b6000611d8287828801611b45565b9450506020611d9387828801611c40565b9350506040611da487828801611b45565b9250506060611db587828801611c40565b91505092959194509250565b600080600060608486031215611dda57611dd9611b1a565b5b6000611de886828701611b45565b9350506020611df986828701611c40565b9250506040611e0a86828701611c40565b9150509250925092565b600081519050919050565b600082825260208201905092915050565b60005b83811015611e4e578082015181840152602081019050611e33565b60008484015250505050565b6000601f19601f8301169050919050565b6000611e7682611e14565b611e808185611e1f565b9350611e90818560208601611e30565b611e9981611e5a565b840191505092915050565b7f4e487b7100000000000000000000000000000000000000000000000000000000600052602160045260246000fd5b60048110611ee457611ee3611ea4565b5b50565b6000819050611ef582611ed3565b919050565b6000611f0582611ee7565b9050919050565b611f1581611efa565b82525050565b600067ffffffffffffffff82169050919050565b611f3881611f1b565b82525050565b600061010082019050611f54600083018b611cf8565b8181036020830152611f66818a611e6b565b9050611f756040830189611f0c565b611f826060830188611f2f565b611f8f6080830187611f2f565b611f9c60a0830186611cf8565b611fa960c0830185611cf8565b611fb660e0830184611cf8565b9998505050505050505050565b600073ffffffffffffffffffffffffffffffffffffffff82169050919050565b6000611fee82611fc3565b9050919050565b611ffe81611fe3565b82525050565b60006020820190506120196000830184611ff5565b92915050565b61202881611fe3565b811461203357600080fd5b50565b6000813590506120458161201f565b92915050565b60006020828403121561206157612060611b1a565b5b600061206f84828501612036565b91505092915050565b6000806040838503121561208f5761208e611b1a565b5b600061209d85828601611b45565b92505060206120ae85828601611b45565b9150509250929050565b60006040820190506120cd6000830185611cf8565b81810360208301526120df8184611e6b565b90509392505050565b600081519050919050565b600082825260208201905092915050565b6000819050602082019050919050565b61211d81611b24565b82525050565b600061212f8383612114565b60208301905092915050565b6000602082019050919050565b6000612153826120e8565b61215d81856120f3565b935061216883612104565b8060005b838110156121995781516121808882612123565b975061218b8361213b565b92505060018101905061216c565b5085935050505092915050565b600081519050919050565b600082825260208201905092915050565b6000819050602082019050919050565b600082825260208201905092915050565b60006121ee82611e14565b6121f881856121d2565b9350612208818560208601611e30565b61221181611e5a565b840191505092915050565b600061222883836121e3565b905092915050565b6000602082019050919050565b6000612248826121a6565b61225281856121b1565b935083602082028501612264856121c2565b8060005b858110156122a05784840389528151612281858261221c565b945061228c83612230565b925060208a01995050600181019050612268565b50829750879550505050505092915050565b600060608201905081810360008301526122cc8186612148565b905081810360208301526122e08185612148565b905081810360408301526122f4818461223d565b9050949350505050565b61230781611f1b565b811461231257600080fd5b50565b600081359050612324816122fe565b92915050565b6000806000806060858703121561234457612343611b1a565b5b600085013567ffffffffffffffff81111561236257612361611b1f565b5b61236e87828801611b69565b9450945050602061238187828801612315565b925050604061239287828801612315565b91505092959194509250565b60006020820190506123b36000830184611cf8565b92915050565b7f4e487b7100000000000000000000000000000000000000000000000000000000600052601160045260246000fd5b60006123f382611b24565b91507fffffffffffffffffffffffffffffffffffffffffffffffffffffffffffffffff8203612425576124246123b9565b5b600182019050919050565b7f4e487b7100000000000000000000000000000000000000000000000000000000600052604160045260246000fd5b7f4e487b7100000000000000000000000000000000000000000000000000000000600052602260045260246000fd5b600060028204905060018216806124a657607f821691505b6020821081036124b9576124b861245f565b5b50919050565b60008190508160005260206000209050919050565b60006020601f8301049050919050565b600082821b905092915050565b6000600883026125217fffffffffffffffffffffffffffffffffffffffffffffffffffffffffffffffff826124e4565b61252b86836124e4565b95508019841693508086168417925050509392505050565b6000819050919050565b600061256861256361255e84611b24565b612543565b611b24565b9050919050565b6000819050919050565b6125828361254d565b61259661258e8261256f565b8484546124f1565b825550505050565b600090565b6125ab61259e565b6125b6818484612579565b505050565b5b818110156125da576125cf6000826125a3565b6001810190506125bc565b5050565b601f82111561261f576125f0816124bf565b6125f9846124d4565b81016020851015612608578190505b61261c612614856124d4565b8301826125bb565b50505b505050565b600082821c905092915050565b600061264260001984600802612624565b1980831691505092915050565b600061265b8383612631565b9150826002028217905092915050565b61267482611e14565b67ffffffffffffffff81111561268d5761268c612430565b5b612697825461248e565b6126a28282856125de565b600060209050601f8311600181146126d557600084156126c3578287015190505b6126cd858261264f565b865550612735565b601f1984166126e3866124bf565b60005b8281101561270b578489015182556001820191506020850194506020810190506126e6565b868310156127285784890151612724601f891682612631565b8355505b6001600288020188555050505b505050505050565b82818337600083830152505050565b60006127588385611e1f565b935061276583858461273d565b61276e83611e5a565b840190509392505050565b6000602082019050818103600083015261279481848661274c565b90509392505050565b60006127a882611b24565b91506127b383611b24565b92508282019050808211156127cb576127ca6123b9565b5b92915050565b60006040820190506127e66000830185611d30565b6127f36020830184611cf8565b9392505050565b600061280582611b24565b915061281083611b24565b9250828203905081811115612828576128276123b9565b5b92915050565b7f4e487b7100000000000000000000000000000000000000000000000000000000600052603260045260246000fd5b6000606082019050818103600083015261287881868861274c565b90506128876020830185611f2f565b6128946040830184611f2f565b95945050505050565b6000819050919050565b6128b86128b382611c1f565b61289d565b82525050565b6000819050919050565b6128d96128d482611b24565b6128be565b82525050565b60006128eb82876128a7565b6020820191506128fb82866128c8565b60208201915061290b82856128a7565b60208201915061291b82846128c8565b6020820191508190509594505050505056fea2646970667358221220564ab9cbbab4ae68704e9aef5cd14ebc145f71797e93eabc2a851cc2bb641a4964736f6c63430008140033",
  "linkReferences": {},
  "deployedLinkReferences": {}
}